{
  "_format": "hh-sol-artifact-1",
  "contractName": "AnonymousVoting",
  "sourceName": "contracts/AnonymousVoting.sol",
  "abi": [
    {
      "inputs": [
        {
          "internalType": "address",
          "name": "_buzzCoin",
          "type": "address"
        },
        {
          "internalType": "uint256",
          "name": "_votingDuration",
          "type": "uint256"
        }
      ],
      "stateMutability": "nonpayable",
      "type": "constructor"
    },
    {
      "anonymous": false,
      "inputs": [
        {
          "indexed": true,
          "internalType": "bytes32",
          "name": "voteHash",
          "type": "bytes32"
        }
      ],
      "name": "VoteCast",
      "type": "event"
    },
    {
      "inputs": [],
      "name": "buzzCoin",
      "outputs": [
        {
          "internalType": "contract IERC20",
          "name": "",
          "type": "address"
        }
      ],
      "stateMutability": "view",
      "type": "function"
    },
    {
      "inputs": [
        {
          "internalType": "bytes32",
          "name": "voteHash",
          "type": "bytes32"
        }
      ],
      "name": "castVote",
      "outputs": [],
      "stateMutability": "nonpayable",
      "type": "function"
    },
    {
      "inputs": [
        {
          "internalType": "bytes32",
          "name": "voteHash",
          "type": "bytes32"
        }
      ],
      "name": "getVoteCount",
      "outputs": [
        {
          "internalType": "uint256",
          "name": "",
          "type": "uint256"
        }
      ],
      "stateMutability": "view",
      "type": "function"
    },
    {
      "inputs": [
        {
          "internalType": "address",
          "name": "",
          "type": "address"
        }
      ],
      "name": "hasVoted",
      "outputs": [
        {
          "internalType": "bool",
          "name": "",
          "type": "bool"
        }
      ],
      "stateMutability": "view",
      "type": "function"
    },
    {
      "inputs": [],
      "name": "owner",
      "outputs": [
        {
          "internalType": "address",
          "name": "",
          "type": "address"
        }
      ],
      "stateMutability": "view",
      "type": "function"
    },
    {
      "inputs": [
        {
          "internalType": "bytes32",
          "name": "",
          "type": "bytes32"
        }
      ],
      "name": "votes",
      "outputs": [
        {
          "internalType": "uint256",
          "name": "",
          "type": "uint256"
        }
      ],
      "stateMutability": "view",
      "type": "function"
    },
    {
      "inputs": [],
      "name": "votingEnd",
      "outputs": [
        {
          "internalType": "uint256",
          "name": "",
          "type": "uint256"
        }
      ],
      "stateMutability": "view",
      "type": "function"
    }
  ],
  "bytecode": "0x608060405234801561001057600080fd5b50604051610aff380380610aff83398181016040528101906100329190610165565b816000806101000a81548173ffffffffffffffffffffffffffffffffffffffff021916908373ffffffffffffffffffffffffffffffffffffffff160217905550804261007e91906101d4565b60018190555033600260006101000a81548173ffffffffffffffffffffffffffffffffffffffff021916908373ffffffffffffffffffffffffffffffffffffffff1602179055505050610208565b600080fd5b600073ffffffffffffffffffffffffffffffffffffffff82169050919050565b60006100fc826100d1565b9050919050565b61010c816100f1565b811461011757600080fd5b50565b60008151905061012981610103565b92915050565b6000819050919050565b6101428161012f565b811461014d57600080fd5b50565b60008151905061015f81610139565b92915050565b6000806040838503121561017c5761017b6100cc565b5b600061018a8582860161011a565b925050602061019b85828601610150565b9150509250929050565b7f4e487b7100000000000000000000000000000000000000000000000000000000600052601160045260246000fd5b60006101df8261012f565b91506101ea8361012f565b9250828201905080821115610202576102016101a5565b5b92915050565b6108e8806102176000396000f3fe608060405234801561001057600080fd5b506004361061007d5760003560e01c80633efafb6e1161005b5780633efafb6e1461010057806385a386351461011c5780638da5cb5b1461013a578063a1695993146101585761007d565b806309eef43e146100825780632b38cd96146100b25780633b769892146100e2575b600080fd5b61009c600480360381019061009791906104ef565b610188565b6040516100a99190610537565b60405180910390f35b6100cc60048036038101906100c79190610588565b6101a8565b6040516100d991906105ce565b60405180910390f35b6100ea6101c0565b6040516100f79190610648565b60405180910390f35b61011a60048036038101906101159190610588565b6101e4565b005b610124610443565b60405161013191906105ce565b60405180910390f35b610142610449565b60405161014f9190610672565b60405180910390f35b610172600480360381019061016d9190610588565b61046f565b60405161017f91906105ce565b60405180910390f35b60046020528060005260406000206000915054906101000a900460ff1681565b60036020528060005260406000206000915090505481565b60008054906101000a900473ffffffffffffffffffffffffffffffffffffffff1681565b6001544210610228576040517f08c379a000000000000000000000000000000000000000000000000000000000815260040161021f906106ea565b60405180910390fd5b60008060009054906101000a900473ffffffffffffffffffffffffffffffffffffffff1673ffffffffffffffffffffffffffffffffffffffff166370a08231336040518263ffffffff1660e01b81526004016102849190610672565b602060405180830381865afa1580156102a1573d6000803e3d6000fd5b505050506040513d601f19601f820116820180604052508101906102c59190610736565b11610305576040517f08c379a00000000000000000000000000000000000000000000000000000000081526004016102fc906107af565b60405180910390fd5b600460003373ffffffffffffffffffffffffffffffffffffffff1673ffffffffffffffffffffffffffffffffffffffff16815260200190815260200160002060009054906101000a900460ff1615610392576040517f08c379a00000000000000000000000000000000000000000000000000000000081526004016103899061081b565b60405180910390fd5b6003600082815260200190815260200160002060008154809291906103b69061086a565b91905055506001600460003373ffffffffffffffffffffffffffffffffffffffff1673ffffffffffffffffffffffffffffffffffffffff16815260200190815260200160002060006101000a81548160ff021916908315150217905550807f83edaadd54883960654e65a82f828e3e27b8c67edaca2263611d68d3c2fb3d8d60405160405180910390a250565b60015481565b600260009054906101000a900473ffffffffffffffffffffffffffffffffffffffff1681565b600060036000838152602001908152602001600020549050919050565b600080fd5b600073ffffffffffffffffffffffffffffffffffffffff82169050919050565b60006104bc82610491565b9050919050565b6104cc816104b1565b81146104d757600080fd5b50565b6000813590506104e9816104c3565b92915050565b6000602082840312156105055761050461048c565b5b6000610513848285016104da565b91505092915050565b60008115159050919050565b6105318161051c565b82525050565b600060208201905061054c6000830184610528565b92915050565b6000819050919050565b61056581610552565b811461057057600080fd5b50565b6000813590506105828161055c565b92915050565b60006020828403121561059e5761059d61048c565b5b60006105ac84828501610573565b91505092915050565b6000819050919050565b6105c8816105b5565b82525050565b60006020820190506105e360008301846105bf565b92915050565b6000819050919050565b600061060e61060961060484610491565b6105e9565b610491565b9050919050565b6000610620826105f3565b9050919050565b600061063282610615565b9050919050565b61064281610627565b82525050565b600060208201905061065d6000830184610639565b92915050565b61066c816104b1565b82525050565b60006020820190506106876000830184610663565b92915050565b600082825260208201905092915050565b7f566f74696e672068617320656e6465642e000000000000000000000000000000600082015250565b60006106d460118361068d565b91506106df8261069e565b602082019050919050565b60006020820190508181036000830152610703816106c7565b9050919050565b610713816105b5565b811461071e57600080fd5b50565b6000815190506107308161070a565b92915050565b60006020828403121561074c5761074b61048c565b5b600061075a84828501610721565b91505092915050565b7f4d75737420686f6c642042757a7a436f696e20746f20766f7465210000000000600082015250565b6000610799601b8361068d565b91506107a482610763565b602082019050919050565b600060208201905081810360008301526107c88161078c565b9050919050565b7f416c726561647920766f74656400000000000000000000000000000000000000600082015250565b6000610805600d8361068d565b9150610810826107cf565b602082019050919050565b60006020820190508181036000830152610834816107f8565b9050919050565b7f4e487b7100000000000000000000000000000000000000000000000000000000600052601160045260246000fd5b6000610875826105b5565b91507fffffffffffffffffffffffffffffffffffffffffffffffffffffffffffffffff82036108a7576108a661083b565b5b60018201905091905056fea26469706673582212201dae0566adf4e5ba67804ba5112657218da86aab8738c7b19550e8b554fd623064736f6c634300081b0033",
  "linkReferences": {},
  "deployedLinkReferences": {}
}