{
  "_format": "hh-sol-artifact-1",
  "contractName": "AnonymousVoting",
  "sourceName": "contracts/AnonymousVoting.sol",
  "abi": [
    {
      "inputs": [
        {
          "internalType": "address",
          "name": "_buzzCoin",
          "type": "address"
        }
      ],
      "stateMutability": "nonpayable",
      "type": "constructor"
    },
    {
      "anonymous": false,
      "inputs": [
        {
          "indexed": false,
          "internalType": "address",
          "name": "voter",
          "type": "address"
        },
        {
          "indexed": false,
          "internalType": "string",
          "name": "message",
          "type": "string"
        }
      ],
      "name": "VoteCast",
      "type": "event"
    },
    {
      "anonymous": false,
      "inputs": [
        {
          "indexed": false,
          "internalType": "string",
          "name": "winner",
          "type": "string"
        }
      ],
      "name": "VotingFinished",
      "type": "event"
    },
    {
      "anonymous": false,
      "inputs": [
        {
          "indexed": false,
          "internalType": "uint256",
          "name": "votingEnd",
          "type": "uint256"
        }
      ],
      "name": "VotingStarted",
      "type": "event"
    },
    {
      "inputs": [],
      "name": "buzzCoin",
      "outputs": [
        {
          "internalType": "contract IERC20",
          "name": "",
          "type": "address"
        }
      ],
      "stateMutability": "view",
      "type": "function"
    },
    {
      "inputs": [],
      "name": "finishVoting",
      "outputs": [],
      "stateMutability": "nonpayable",
      "type": "function"
    },
    {
      "inputs": [],
      "name": "getOptionCount",
      "outputs": [
        {
          "internalType": "uint256",
          "name": "",
          "type": "uint256"
        }
      ],
      "stateMutability": "view",
      "type": "function"
    },
    {
      "inputs": [],
      "name": "getWinner",
      "outputs": [
        {
          "internalType": "string",
          "name": "",
          "type": "string"
        }
      ],
      "stateMutability": "view",
      "type": "function"
    },
    {
      "inputs": [
        {
          "internalType": "address",
          "name": "",
          "type": "address"
        }
      ],
      "name": "hasVoted",
      "outputs": [
        {
          "internalType": "bool",
          "name": "",
          "type": "bool"
        }
      ],
      "stateMutability": "view",
      "type": "function"
    },
    {
      "inputs": [
        {
          "internalType": "uint256",
          "name": "",
          "type": "uint256"
        }
      ],
      "name": "options",
      "outputs": [
        {
          "internalType": "string",
          "name": "name",
          "type": "string"
        },
        {
          "internalType": "uint256",
          "name": "voteCount",
          "type": "uint256"
        }
      ],
      "stateMutability": "view",
      "type": "function"
    },
    {
      "inputs": [],
      "name": "owner",
      "outputs": [
        {
          "internalType": "address",
          "name": "",
          "type": "address"
        }
      ],
      "stateMutability": "view",
      "type": "function"
    },
    {
      "inputs": [
        {
          "internalType": "string[]",
          "name": "_votingOptions",
          "type": "string[]"
        },
        {
          "internalType": "uint256",
          "name": "_votingDuration",
          "type": "uint256"
        }
      ],
      "name": "startVoting",
      "outputs": [],
      "stateMutability": "nonpayable",
      "type": "function"
    },
    {
      "inputs": [
        {
          "internalType": "string",
          "name": "optionName",
          "type": "string"
        }
      ],
      "name": "vote",
      "outputs": [],
      "stateMutability": "nonpayable",
      "type": "function"
    },
    {
      "inputs": [],
      "name": "votingEnd",
      "outputs": [
        {
          "internalType": "uint256",
          "name": "",
          "type": "uint256"
        }
      ],
      "stateMutability": "view",
      "type": "function"
    },
    {
      "inputs": [],
      "name": "votingState",
      "outputs": [
        {
          "internalType": "enum AnonymousVoting.VotingState",
          "name": "",
          "type": "uint8"
        }
      ],
      "stateMutability": "view",
      "type": "function"
    },
    {
      "inputs": [],
      "name": "winner",
      "outputs": [
        {
          "internalType": "string",
          "name": "",
          "type": "string"
        }
      ],
      "stateMutability": "view",
      "type": "function"
    }
  ],
  "bytecode": "0x608060405234801561001057600080fd5b5060405161236738038061236783398181016040528101906100329190610167565b33600460006101000a81548173ffffffffffffffffffffffffffffffffffffffff021916908373ffffffffffffffffffffffffffffffffffffffff16021790555080600660006101000a81548173ffffffffffffffffffffffffffffffffffffffff021916908373ffffffffffffffffffffffffffffffffffffffff1602179055506000600160006101000a81548160ff021916908360028111156100da576100d9610194565b5b021790555060405180602001604052806000815250600390816100fd9190610413565b50506104e5565b600080fd5b600073ffffffffffffffffffffffffffffffffffffffff82169050919050565b600061013482610109565b9050919050565b61014481610129565b811461014f57600080fd5b50565b6000815190506101618161013b565b92915050565b60006020828403121561017d5761017c610104565b5b600061018b84828501610152565b91505092915050565b7f4e487b7100000000000000000000000000000000000000000000000000000000600052602160045260246000fd5b600081519050919050565b7f4e487b7100000000000000000000000000000000000000000000000000000000600052604160045260246000fd5b7f4e487b7100000000000000000000000000000000000000000000000000000000600052602260045260246000fd5b6000600282049050600182168061024457607f821691505b602082108103610257576102566101fd565b5b50919050565b60008190508160005260206000209050919050565b60006020601f8301049050919050565b600082821b905092915050565b6000600883026102bf7fffffffffffffffffffffffffffffffffffffffffffffffffffffffffffffffff82610282565b6102c98683610282565b95508019841693508086168417925050509392505050565b6000819050919050565b6000819050919050565b600061031061030b610306846102e1565b6102eb565b6102e1565b9050919050565b6000819050919050565b61032a836102f5565b61033e61033682610317565b84845461028f565b825550505050565b600090565b610353610346565b61035e818484610321565b505050565b5b818110156103825761037760008261034b565b600181019050610364565b5050565b601f8211156103c7576103988161025d565b6103a184610272565b810160208510156103b0578190505b6103c46103bc85610272565b830182610363565b50505b505050565b600082821c905092915050565b60006103ea600019846008026103cc565b1980831691505092915050565b600061040383836103d9565b9150826002028217905092915050565b61041c826101c3565b67ffffffffffffffff811115610435576104346101ce565b5b61043f825461022c565b61044a828285610386565b600060209050601f83116001811461047d576000841561046b578287015190505b61047585826103f7565b8655506104dd565b601f19841661048b8661025d565b60005b828110156104b35784890151825560018201915060208501945060208101905061048e565b868310156104d057848901516104cc601f8916826103d9565b8355505b6001600288020188555050505b505050505050565b611e73806104f46000396000f3fe608060405234801561001057600080fd5b50600436106100b45760003560e01c8063a6bd542711610071578063a6bd542714610192578063b62312bf146101b0578063bc0a2ab3146101ce578063dfbf53ae146101ea578063f909430314610208578063fc36e15b14610212576100b4565b806309eef43e146100b95780633b769892146100e9578063409e22051461010757806385a38635146101385780638da5cb5b146101565780638e7ea5b214610174575b600080fd5b6100d360048036038101906100ce9190610e38565b61022e565b6040516100e09190610e80565b60405180910390f35b6100f161024e565b6040516100fe9190610efa565b60405180910390f35b610121600480360381019061011c9190610f4b565b610274565b60405161012f929190611017565b60405180910390f35b610140610330565b60405161014d9190611047565b60405180910390f35b61015e610336565b60405161016b9190611071565b60405180910390f35b61017c61035c565b604051610189919061108c565b60405180910390f35b61019a610463565b6040516101a79190611047565b60405180910390f35b6101b861046f565b6040516101c59190611125565b60405180910390f35b6101e860048036038101906101e3919061135b565b610482565b005b6101f26106de565b6040516101ff919061108c565b60405180910390f35b61021061076c565b005b61022c600480360381019061022791906113b7565b6109c6565b005b60026020528060005260406000206000915054906101000a900460ff1681565b600660009054906101000a900473ffffffffffffffffffffffffffffffffffffffff1681565b6000818154811061028457600080fd5b90600052602060002090600202016000915090508060000180546102a79061142f565b80601f01602080910402602001604051908101604052809291908181526020018280546102d39061142f565b80156103205780601f106102f557610100808354040283529160200191610320565b820191906000526020600020905b81548152906001019060200180831161030357829003601f168201915b5050505050908060010154905082565b60055481565b600460009054906101000a900473ffffffffffffffffffffffffffffffffffffffff1681565b6060600280811115610371576103706110ae565b5b600160009054906101000a900460ff166002811115610393576103926110ae565b5b146103d3576040517f08c379a00000000000000000000000000000000000000000000000000000000081526004016103ca906114ac565b60405180910390fd5b600380546103e09061142f565b80601f016020809104026020016040519081016040528092919081815260200182805461040c9061142f565b80156104595780601f1061042e57610100808354040283529160200191610459565b820191906000526020600020905b81548152906001019060200180831161043c57829003601f168201915b5050505050905090565b60008080549050905090565b600160009054906101000a900460ff1681565b600460009054906101000a900473ffffffffffffffffffffffffffffffffffffffff1673ffffffffffffffffffffffffffffffffffffffff163373ffffffffffffffffffffffffffffffffffffffff1614610512576040517f08c379a00000000000000000000000000000000000000000000000000000000081526004016105099061153e565b60405180910390fd5b6000806002811115610527576105266110ae565b5b600160009054906101000a900460ff166002811115610549576105486110ae565b5b14610589576040517f08c379a0000000000000000000000000000000000000000000000000000000008152600401610580906115aa565b60405180910390fd5b60018351116105cd576040517f08c379a00000000000000000000000000000000000000000000000000000000081526004016105c49061163c565b60405180910390fd5b60005b835181101561066357600060405180604001604052808684815181106105f9576105f861165c565b5b60200260200101518152602001600081525090806001815401808255809150506001900390600052602060002090600202016000909190919091506000820151816000019081610649919061182d565b5060208201518160010155505080806001019150506105d0565b508142610670919061192e565b60058190555060018060006101000a81548160ff0219169083600281111561069b5761069a6110ae565b5b02179055507fcf33babc496bb6dc2942b39cb7b75766bbbadf7da50d176ff8c513e9911402396005546040516106d19190611047565b60405180910390a1505050565b600380546106eb9061142f565b80601f01602080910402602001604051908101604052809291908181526020018280546107179061142f565b80156107645780601f1061073957610100808354040283529160200191610764565b820191906000526020600020905b81548152906001019060200180831161074757829003601f168201915b505050505081565b6005544210156107b1576040517f08c379a00000000000000000000000000000000000000000000000000000000081526004016107a8906114ac565b60405180910390fd5b600160028111156107c5576107c46110ae565b5b600160009054906101000a900460ff1660028111156107e7576107e66110ae565b5b14610827576040517f08c379a000000000000000000000000000000000000000000000000000000000815260040161081e906119ae565b60405180910390fd5b6002600160006101000a81548160ff0219169083600281111561084d5761084c6110ae565b5b02179055506000606060005b60008054905081101561097957826000828154811061087b5761087a61165c565b5b906000526020600020906002020160010154111561096c57600081815481106108a7576108a661165c565b5b9060005260206000209060020201600101549250600081815481106108cf576108ce61165c565b5b906000526020600020906002020160000180546108eb9061142f565b80601f01602080910402602001604051908101604052809291908181526020018280546109179061142f565b80156109645780601f1061093957610100808354040283529160200191610964565b820191906000526020600020905b81548152906001019060200180831161094757829003601f168201915b505050505091505b8080600101915050610859565b508060039081610989919061182d565b507f8813091f7bbbf010986f0578782f522f8d30026821ec928daec9a2f3e0e92dc260036040516109ba9190611a52565b60405180910390a15050565b60018060028111156109db576109da6110ae565b5b600160009054906101000a900460ff1660028111156109fd576109fc6110ae565b5b14610a3d576040517f08c379a0000000000000000000000000000000000000000000000000000000008152600401610a34906115aa565b60405180910390fd5b6000600660009054906101000a900473ffffffffffffffffffffffffffffffffffffffff1673ffffffffffffffffffffffffffffffffffffffff166370a08231336040518263ffffffff1660e01b8152600401610a9a9190611071565b602060405180830381865afa158015610ab7573d6000803e3d6000fd5b505050506040513d601f19601f82011682018060405250810190610adb9190611a89565b11610b1b576040517f08c379a0000000000000000000000000000000000000000000000000000000008152600401610b1290611b02565b60405180910390fd5b6005544210610b5f576040517f08c379a0000000000000000000000000000000000000000000000000000000008152600401610b5690611b6e565b60405180910390fd5b600260003373ffffffffffffffffffffffffffffffffffffffff1673ffffffffffffffffffffffffffffffffffffffff16815260200190815260200160002060009054906101000a900460ff1615610bec576040517f08c379a0000000000000000000000000000000000000000000000000000000008152600401610be390611bda565b60405180910390fd5b6000805b600080549050811015610cc75783604051602001610c0e9190611c36565b6040516020818303038152906040528051906020012060008281548110610c3857610c3761165c565b5b9060005260206000209060020201600001604051602001610c599190611cd0565b6040516020818303038152906040528051906020012003610cba57600160008281548110610c8a57610c8961165c565b5b90600052602060002090600202016001016000828254610caa919061192e565b9250508190555060019150610cc7565b8080600101915050610bf0565b5080610d08576040517f08c379a0000000000000000000000000000000000000000000000000000000008152600401610cff90611d33565b60405180910390fd5b6001600260003373ffffffffffffffffffffffffffffffffffffffff1673ffffffffffffffffffffffffffffffffffffffff16815260200190815260200160002060006101000a81548160ff0219169083151502179055503383604051602001610d73929190611d9b565b60405160208183030381529060405280519060200120507f866dc605853954ffa419910eb05d67f430efec2e7db7ce135bf55565667a4ab433604051610db99190611e0f565b60405180910390a1505050565b6000604051905090565b600080fd5b600080fd5b600073ffffffffffffffffffffffffffffffffffffffff82169050919050565b6000610e0582610dda565b9050919050565b610e1581610dfa565b8114610e2057600080fd5b50565b600081359050610e3281610e0c565b92915050565b600060208284031215610e4e57610e4d610dd0565b5b6000610e5c84828501610e23565b91505092915050565b60008115159050919050565b610e7a81610e65565b82525050565b6000602082019050610e956000830184610e71565b92915050565b6000819050919050565b6000610ec0610ebb610eb684610dda565b610e9b565b610dda565b9050919050565b6000610ed282610ea5565b9050919050565b6000610ee482610ec7565b9050919050565b610ef481610ed9565b82525050565b6000602082019050610f0f6000830184610eeb565b92915050565b6000819050919050565b610f2881610f15565b8114610f3357600080fd5b50565b600081359050610f4581610f1f565b92915050565b600060208284031215610f6157610f60610dd0565b5b6000610f6f84828501610f36565b91505092915050565b600081519050919050565b600082825260208201905092915050565b60005b83811015610fb2578082015181840152602081019050610f97565b60008484015250505050565b6000601f19601f8301169050919050565b6000610fda82610f78565b610fe48185610f83565b9350610ff4818560208601610f94565b610ffd81610fbe565b840191505092915050565b61101181610f15565b82525050565b600060408201905081810360008301526110318185610fcf565b90506110406020830184611008565b9392505050565b600060208201905061105c6000830184611008565b92915050565b61106b81610dfa565b82525050565b60006020820190506110866000830184611062565b92915050565b600060208201905081810360008301526110a68184610fcf565b905092915050565b7f4e487b7100000000000000000000000000000000000000000000000000000000600052602160045260246000fd5b600381106110ee576110ed6110ae565b5b50565b60008190506110ff826110dd565b919050565b600061110f826110f1565b9050919050565b61111f81611104565b82525050565b600060208201905061113a6000830184611116565b92915050565b600080fd5b7f4e487b7100000000000000000000000000000000000000000000000000000000600052604160045260246000fd5b61117d82610fbe565b810181811067ffffffffffffffff8211171561119c5761119b611145565b5b80604052505050565b60006111af610dc6565b90506111bb8282611174565b919050565b600067ffffffffffffffff8211156111db576111da611145565b5b602082029050602081019050919050565b600080fd5b600080fd5b600067ffffffffffffffff82111561121157611210611145565b5b61121a82610fbe565b9050602081019050919050565b82818337600083830152505050565b6000611249611244846111f6565b6111a5565b905082815260208101848484011115611265576112646111f1565b5b611270848285611227565b509392505050565b600082601f83011261128d5761128c611140565b5b813561129d848260208601611236565b91505092915050565b60006112b96112b4846111c0565b6111a5565b905080838252602082019050602084028301858111156112dc576112db6111ec565b5b835b8181101561132357803567ffffffffffffffff81111561130157611300611140565b5b80860161130e8982611278565b855260208501945050506020810190506112de565b5050509392505050565b600082601f83011261134257611341611140565b5b81356113528482602086016112a6565b91505092915050565b6000806040838503121561137257611371610dd0565b5b600083013567ffffffffffffffff8111156113905761138f610dd5565b5b61139c8582860161132d565b92505060206113ad85828601610f36565b9150509250929050565b6000602082840312156113cd576113cc610dd0565b5b600082013567ffffffffffffffff8111156113eb576113ea610dd5565b5b6113f784828501611278565b91505092915050565b7f4e487b7100000000000000000000000000000000000000000000000000000000600052602260045260246000fd5b6000600282049050600182168061144757607f821691505b60208210810361145a57611459611400565b5b50919050565b7f566f74696e6720686173206e6f7420656e646564207965742100000000000000600082015250565b6000611496601983610f83565b91506114a182611460565b602082019050919050565b600060208201905081810360008301526114c581611489565b9050919050565b7f4f6e6c79206f776e65722063616e2063616c6c20746869732066756e6374696f60008201527f6e21000000000000000000000000000000000000000000000000000000000000602082015250565b6000611528602283610f83565b9150611533826114cc565b604082019050919050565b600060208201905081810360008301526115578161151b565b9050919050565b7f496e76616c696420737461746521000000000000000000000000000000000000600082015250565b6000611594600e83610f83565b915061159f8261155e565b602082019050919050565b600060208201905081810360008301526115c381611587565b9050919050565b7f4d7573742068617665206174206c65617374203220766f74696e67206f70746960008201527f6f6e732100000000000000000000000000000000000000000000000000000000602082015250565b6000611626602483610f83565b9150611631826115ca565b604082019050919050565b6000602082019050818103600083015261165581611619565b9050919050565b7f4e487b7100000000000000000000000000000000000000000000000000000000600052603260045260246000fd5b60008190508160005260206000209050919050565b60006020601f8301049050919050565b600082821b905092915050565b6000600883026116ed7fffffffffffffffffffffffffffffffffffffffffffffffffffffffffffffffff826116b0565b6116f786836116b0565b95508019841693508086168417925050509392505050565b600061172a61172561172084610f15565b610e9b565b610f15565b9050919050565b6000819050919050565b6117448361170f565b61175861175082611731565b8484546116bd565b825550505050565b600090565b61176d611760565b61177881848461173b565b505050565b5b8181101561179c57611791600082611765565b60018101905061177e565b5050565b601f8211156117e1576117b28161168b565b6117bb846116a0565b810160208510156117ca578190505b6117de6117d6856116a0565b83018261177d565b50505b505050565b600082821c905092915050565b6000611804600019846008026117e6565b1980831691505092915050565b600061181d83836117f3565b9150826002028217905092915050565b61183682610f78565b67ffffffffffffffff81111561184f5761184e611145565b5b611859825461142f565b6118648282856117a0565b600060209050601f8311600181146118975760008415611885578287015190505b61188f8582611811565b8655506118f7565b601f1984166118a58661168b565b60005b828110156118cd578489015182556001820191506020850194506020810190506118a8565b868310156118ea57848901516118e6601f8916826117f3565b8355505b6001600288020188555050505b505050505050565b7f4e487b7100000000000000000000000000000000000000000000000000000000600052601160045260246000fd5b600061193982610f15565b915061194483610f15565b925082820190508082111561195c5761195b6118ff565b5b92915050565b7f566f74696e6720686173206e6f74207374617274656420796574210000000000600082015250565b6000611998601b83610f83565b91506119a382611962565b602082019050919050565b600060208201905081810360008301526119c78161198b565b9050919050565b600081546119db8161142f565b6119e58186610f83565b94506001821660008114611a005760018114611a1657611a49565b60ff198316865281151560200286019350611a49565b611a1f8561168b565b60005b83811015611a4157815481890152600182019150602081019050611a22565b808801955050505b50505092915050565b60006020820190508181036000830152611a6c81846119ce565b905092915050565b600081519050611a8381610f1f565b92915050565b600060208284031215611a9f57611a9e610dd0565b5b6000611aad84828501611a74565b91505092915050565b7f4d75737420686f6c642042757a7a436f696e20746f20766f7465210000000000600082015250565b6000611aec601b83610f83565b9150611af782611ab6565b602082019050919050565b60006020820190508181036000830152611b1b81611adf565b9050919050565b7f566f74696e672068617320656e64656421000000000000000000000000000000600082015250565b6000611b58601183610f83565b9150611b6382611b22565b602082019050919050565b60006020820190508181036000830152611b8781611b4b565b9050919050565b7f596f75206861766520616c726561647920766f74656421000000000000000000600082015250565b6000611bc4601783610f83565b9150611bcf82611b8e565b602082019050919050565b60006020820190508181036000830152611bf381611bb7565b9050919050565b600081905092915050565b6000611c1082610f78565b611c1a8185611bfa565b9350611c2a818560208601610f94565b80840191505092915050565b6000611c428284611c05565b915081905092915050565b60008154611c5a8161142f565b611c648186611bfa565b94506001821660008114611c7f5760018114611c9457611cc7565b60ff1983168652811515820286019350611cc7565b611c9d8561168b565b60005b83811015611cbf57815481890152600182019150602081019050611ca0565b838801955050505b50505092915050565b6000611cdc8284611c4d565b915081905092915050565b7f496e76616c696420766f7465206f7074696f6e21000000000000000000000000600082015250565b6000611d1d601483610f83565b9150611d2882611ce7565b602082019050919050565b60006020820190508181036000830152611d4c81611d10565b9050919050565b60008160601b9050919050565b6000611d6b82611d53565b9050919050565b6000611d7d82611d60565b9050919050565b611d95611d9082610dfa565b611d72565b82525050565b6000611da78285611d84565b601482019150611db78284611c05565b91508190509392505050565b7f566f7465207375636365737366756c6c79206361737465642100000000000000600082015250565b6000611df9601983610f83565b9150611e0482611dc3565b602082019050919050565b6000604082019050611e246000830184611062565b8181036020830152611e3581611dec565b90509291505056fea264697066735822122019bb2ff3629ac3c8f7fe2ca93b3b86e84c2cd4758a3b5de6a65e4730f660b46164736f6c634300081b0033",
  "linkReferences": {},
  "deployedLinkReferences": {}
}