{
  "_format": "hh-sol-artifact-1",
  "contractName": "AnonymousVoting",
  "sourceName": "contracts/AnonymousVoting.sol",
  "abi": [
    {
      "inputs": [
        {
          "internalType": "address",
          "name": "_buzzCoin",
          "type": "address"
        }
      ],
      "stateMutability": "nonpayable",
      "type": "constructor"
    },
    {
      "anonymous": false,
      "inputs": [
        {
          "indexed": false,
          "internalType": "address",
          "name": "voter",
          "type": "address"
        },
        {
          "indexed": false,
          "internalType": "string",
          "name": "message",
          "type": "string"
        }
      ],
      "name": "VoteCast",
      "type": "event"
    },
    {
      "anonymous": false,
      "inputs": [
        {
          "indexed": false,
          "internalType": "bytes32",
          "name": "winner",
          "type": "bytes32"
        }
      ],
      "name": "VotingFinished",
      "type": "event"
    },
    {
      "anonymous": false,
      "inputs": [
        {
          "indexed": false,
          "internalType": "uint256",
          "name": "votingEnd",
          "type": "uint256"
        }
      ],
      "name": "VotingStarted",
      "type": "event"
    },
    {
      "inputs": [],
      "name": "buzzCoin",
      "outputs": [
        {
          "internalType": "contract IERC20",
          "name": "",
          "type": "address"
        }
      ],
      "stateMutability": "view",
      "type": "function"
    },
    {
      "inputs": [],
      "name": "finishVoting",
      "outputs": [],
      "stateMutability": "nonpayable",
      "type": "function"
    },
    {
      "inputs": [],
      "name": "getWinner",
      "outputs": [
        {
          "internalType": "bytes32",
          "name": "",
          "type": "bytes32"
        }
      ],
      "stateMutability": "view",
      "type": "function"
    },
    {
      "inputs": [
        {
          "internalType": "address",
          "name": "",
          "type": "address"
        }
      ],
      "name": "hasVoted",
      "outputs": [
        {
          "internalType": "bool",
          "name": "",
          "type": "bool"
        }
      ],
      "stateMutability": "view",
      "type": "function"
    },
    {
      "inputs": [
        {
          "internalType": "uint256",
          "name": "",
          "type": "uint256"
        }
      ],
      "name": "options",
      "outputs": [
        {
          "internalType": "bytes32",
          "name": "name",
          "type": "bytes32"
        },
        {
          "internalType": "uint256",
          "name": "voteCount",
          "type": "uint256"
        }
      ],
      "stateMutability": "view",
      "type": "function"
    },
    {
      "inputs": [],
      "name": "owner",
      "outputs": [
        {
          "internalType": "address",
          "name": "",
          "type": "address"
        }
      ],
      "stateMutability": "view",
      "type": "function"
    },
    {
      "inputs": [
        {
          "internalType": "bytes32[]",
          "name": "_votingOptions",
          "type": "bytes32[]"
        },
        {
          "internalType": "uint256",
          "name": "_votingDuration",
          "type": "uint256"
        }
      ],
      "name": "startVoting",
      "outputs": [],
      "stateMutability": "nonpayable",
      "type": "function"
    },
    {
      "inputs": [
        {
          "internalType": "bytes32",
          "name": "optionName",
          "type": "bytes32"
        }
      ],
      "name": "vote",
      "outputs": [],
      "stateMutability": "nonpayable",
      "type": "function"
    },
    {
      "inputs": [],
      "name": "votingEnd",
      "outputs": [
        {
          "internalType": "uint256",
          "name": "",
          "type": "uint256"
        }
      ],
      "stateMutability": "view",
      "type": "function"
    },
    {
      "inputs": [],
      "name": "votingState",
      "outputs": [
        {
          "internalType": "enum AnonymousVoting.VotingState",
          "name": "",
          "type": "uint8"
        }
      ],
      "stateMutability": "view",
      "type": "function"
    },
    {
      "inputs": [],
      "name": "winner",
      "outputs": [
        {
          "internalType": "bytes32",
          "name": "",
          "type": "bytes32"
        }
      ],
      "stateMutability": "view",
      "type": "function"
    }
  ],
  "bytecode": "0x608060405234801561001057600080fd5b5060405161181438038061181483398181016040528101906100329190610150565b33600460006101000a81548173ffffffffffffffffffffffffffffffffffffffff021916908373ffffffffffffffffffffffffffffffffffffffff16021790555080600660006101000a81548173ffffffffffffffffffffffffffffffffffffffff021916908373ffffffffffffffffffffffffffffffffffffffff1602179055506000600160006101000a81548160ff021916908360028111156100da576100d961017d565b5b02179055506000600381905550506101ac565b600080fd5b600073ffffffffffffffffffffffffffffffffffffffff82169050919050565b600061011d826100f2565b9050919050565b61012d81610112565b811461013857600080fd5b50565b60008151905061014a81610124565b92915050565b600060208284031215610166576101656100ed565b5b60006101748482850161013b565b91505092915050565b7f4e487b7100000000000000000000000000000000000000000000000000000000600052602160045260246000fd5b611659806101bb6000396000f3fe608060405234801561001057600080fd5b50600436106100a95760003560e01c80638da5cb5b116100715780638da5cb5b146101675780638e7ea5b214610185578063a69beaba146101a3578063b62312bf146101bf578063dfbf53ae146101dd578063f9094303146101fb576100a9565b806309eef43e146100ae5780633b769892146100de578063409e2205146100fc57806349c4e38a1461012d57806385a3863514610149575b600080fd5b6100c860048036038101906100c39190610b86565b610205565b6040516100d59190610bce565b60405180910390f35b6100e6610225565b6040516100f39190610c48565b60405180910390f35b61011660048036038101906101119190610c99565b61024b565b604051610124929190610cee565b60405180910390f35b61014760048036038101906101429190610e9c565b61027f565b005b6101516104cf565b60405161015e9190610ef8565b60405180910390f35b61016f6104d5565b60405161017c9190610f22565b60405180910390f35b61018d6104fb565b60405161019a9190610f3d565b60405180910390f35b6101bd60048036038101906101b89190610f58565b61057a565b005b6101c761092f565b6040516101d49190610ffc565b60405180910390f35b6101e5610942565b6040516101f29190610f3d565b60405180910390f35b610203610948565b005b60026020528060005260406000206000915054906101000a900460ff1681565b600660009054906101000a900473ffffffffffffffffffffffffffffffffffffffff1681565b6000818154811061025b57600080fd5b90600052602060002090600202016000915090508060000154908060010154905082565b600460009054906101000a900473ffffffffffffffffffffffffffffffffffffffff1673ffffffffffffffffffffffffffffffffffffffff163373ffffffffffffffffffffffffffffffffffffffff161461030f576040517f08c379a00000000000000000000000000000000000000000000000000000000081526004016103069061109a565b60405180910390fd5b600080600281111561032457610323610f85565b5b600160009054906101000a900460ff16600281111561034657610345610f85565b5b14610386576040517f08c379a000000000000000000000000000000000000000000000000000000000815260040161037d90611106565b60405180910390fd5b60018351116103ca576040517f08c379a00000000000000000000000000000000000000000000000000000000081526004016103c190611198565b60405180910390fd5b60005b835181101561045457600060405180604001604052808684815181106103f6576103f56111b8565b5b60200260200101518152602001600081525090806001815401808255809150506001900390600052602060002090600202016000909190919091506000820151816000015560208201518160010155505080806001019150506103cd565b5081426104619190611216565b60058190555060018060006101000a81548160ff0219169083600281111561048c5761048b610f85565b5b02179055507fcf33babc496bb6dc2942b39cb7b75766bbbadf7da50d176ff8c513e9911402396005546040516104c29190610ef8565b60405180910390a1505050565b60055481565b600460009054906101000a900473ffffffffffffffffffffffffffffffffffffffff1681565b60006002808111156105105761050f610f85565b5b600160009054906101000a900460ff16600281111561053257610531610f85565b5b14610572576040517f08c379a000000000000000000000000000000000000000000000000000000000815260040161056990611296565b60405180910390fd5b600354905090565b600180600281111561058f5761058e610f85565b5b600160009054906101000a900460ff1660028111156105b1576105b0610f85565b5b146105f1576040517f08c379a00000000000000000000000000000000000000000000000000000000081526004016105e890611106565b60405180910390fd5b6000600660009054906101000a900473ffffffffffffffffffffffffffffffffffffffff1673ffffffffffffffffffffffffffffffffffffffff166370a08231336040518263ffffffff1660e01b815260040161064e9190610f22565b602060405180830381865afa15801561066b573d6000803e3d6000fd5b505050506040513d601f19601f8201168201806040525081019061068f91906112cb565b116106cf576040517f08c379a00000000000000000000000000000000000000000000000000000000081526004016106c690611344565b60405180910390fd5b6005544210610713576040517f08c379a000000000000000000000000000000000000000000000000000000000815260040161070a906113b0565b60405180910390fd5b600260003373ffffffffffffffffffffffffffffffffffffffff1673ffffffffffffffffffffffffffffffffffffffff16815260200190815260200160002060009054906101000a900460ff16156107a0576040517f08c379a00000000000000000000000000000000000000000000000000000000081526004016107979061141c565b60405180910390fd5b6000805b6000805490508110156108305783600082815481106107c6576107c56111b8565b5b90600052602060002090600202016000015403610823576001600082815481106107f3576107f26111b8565b5b906000526020600020906002020160010160008282546108139190611216565b9250508190555060019150610830565b80806001019150506107a4565b5080610871576040517f08c379a000000000000000000000000000000000000000000000000000000000815260040161086890611488565b60405180910390fd5b6001600260003373ffffffffffffffffffffffffffffffffffffffff1673ffffffffffffffffffffffffffffffffffffffff16815260200190815260200160002060006101000a81548160ff02191690831515021790555033836040516020016108dc929190611511565b60405160208183030381529060405280519060200120507f866dc605853954ffa419910eb05d67f430efec2e7db7ce135bf55565667a4ab4336040516109229190611589565b60405180910390a1505050565b600160009054906101000a900460ff1681565b60035481565b60055442101561098d576040517f08c379a000000000000000000000000000000000000000000000000000000000815260040161098490611296565b60405180910390fd5b600160028111156109a1576109a0610f85565b5b600160009054906101000a900460ff1660028111156109c3576109c2610f85565b5b14610a03576040517f08c379a00000000000000000000000000000000000000000000000000000000081526004016109fa90611603565b60405180910390fd5b6002600160006101000a81548160ff02191690836002811115610a2957610a28610f85565b5b021790555060008080600090505b600080549050811015610acf578260008281548110610a5957610a586111b8565b5b9060005260206000209060020201600101541115610ac25760008181548110610a8557610a846111b8565b5b906000526020600020906002020160010154925060008181548110610aad57610aac6111b8565b5b90600052602060002090600202016000015491505b8080600101915050610a37565b50806003819055507f32039408f734b254f4082314aa6a1ff685c213a8c4caf5102ee2633d673b5749600354604051610b089190610f3d565b60405180910390a15050565b6000604051905090565b600080fd5b600080fd5b600073ffffffffffffffffffffffffffffffffffffffff82169050919050565b6000610b5382610b28565b9050919050565b610b6381610b48565b8114610b6e57600080fd5b50565b600081359050610b8081610b5a565b92915050565b600060208284031215610b9c57610b9b610b1e565b5b6000610baa84828501610b71565b91505092915050565b60008115159050919050565b610bc881610bb3565b82525050565b6000602082019050610be36000830184610bbf565b92915050565b6000819050919050565b6000610c0e610c09610c0484610b28565b610be9565b610b28565b9050919050565b6000610c2082610bf3565b9050919050565b6000610c3282610c15565b9050919050565b610c4281610c27565b82525050565b6000602082019050610c5d6000830184610c39565b92915050565b6000819050919050565b610c7681610c63565b8114610c8157600080fd5b50565b600081359050610c9381610c6d565b92915050565b600060208284031215610caf57610cae610b1e565b5b6000610cbd84828501610c84565b91505092915050565b6000819050919050565b610cd981610cc6565b82525050565b610ce881610c63565b82525050565b6000604082019050610d036000830185610cd0565b610d106020830184610cdf565b9392505050565b600080fd5b6000601f19601f8301169050919050565b7f4e487b7100000000000000000000000000000000000000000000000000000000600052604160045260246000fd5b610d6582610d1c565b810181811067ffffffffffffffff82111715610d8457610d83610d2d565b5b80604052505050565b6000610d97610b14565b9050610da38282610d5c565b919050565b600067ffffffffffffffff821115610dc357610dc2610d2d565b5b602082029050602081019050919050565b600080fd5b610de281610cc6565b8114610ded57600080fd5b50565b600081359050610dff81610dd9565b92915050565b6000610e18610e1384610da8565b610d8d565b90508083825260208201905060208402830185811115610e3b57610e3a610dd4565b5b835b81811015610e645780610e508882610df0565b845260208401935050602081019050610e3d565b5050509392505050565b600082601f830112610e8357610e82610d17565b5b8135610e93848260208601610e05565b91505092915050565b60008060408385031215610eb357610eb2610b1e565b5b600083013567ffffffffffffffff811115610ed157610ed0610b23565b5b610edd85828601610e6e565b9250506020610eee85828601610c84565b9150509250929050565b6000602082019050610f0d6000830184610cdf565b92915050565b610f1c81610b48565b82525050565b6000602082019050610f376000830184610f13565b92915050565b6000602082019050610f526000830184610cd0565b92915050565b600060208284031215610f6e57610f6d610b1e565b5b6000610f7c84828501610df0565b91505092915050565b7f4e487b7100000000000000000000000000000000000000000000000000000000600052602160045260246000fd5b60038110610fc557610fc4610f85565b5b50565b6000819050610fd682610fb4565b919050565b6000610fe682610fc8565b9050919050565b610ff681610fdb565b82525050565b60006020820190506110116000830184610fed565b92915050565b600082825260208201905092915050565b7f4f6e6c79206f776e65722063616e2063616c6c20746869732066756e6374696f60008201527f6e21000000000000000000000000000000000000000000000000000000000000602082015250565b6000611084602283611017565b915061108f82611028565b604082019050919050565b600060208201905081810360008301526110b381611077565b9050919050565b7f496e76616c696420737461746521000000000000000000000000000000000000600082015250565b60006110f0600e83611017565b91506110fb826110ba565b602082019050919050565b6000602082019050818103600083015261111f816110e3565b9050919050565b7f4d7573742068617665206174206c65617374203220766f74696e67206f70746960008201527f6f6e732100000000000000000000000000000000000000000000000000000000602082015250565b6000611182602483611017565b915061118d82611126565b604082019050919050565b600060208201905081810360008301526111b181611175565b9050919050565b7f4e487b7100000000000000000000000000000000000000000000000000000000600052603260045260246000fd5b7f4e487b7100000000000000000000000000000000000000000000000000000000600052601160045260246000fd5b600061122182610c63565b915061122c83610c63565b9250828201905080821115611244576112436111e7565b5b92915050565b7f566f74696e6720686173206e6f7420656e646564207965742100000000000000600082015250565b6000611280601983611017565b915061128b8261124a565b602082019050919050565b600060208201905081810360008301526112af81611273565b9050919050565b6000815190506112c581610c6d565b92915050565b6000602082840312156112e1576112e0610b1e565b5b60006112ef848285016112b6565b91505092915050565b7f4d75737420686f6c642042757a7a436f696e20746f20766f7465210000000000600082015250565b600061132e601b83611017565b9150611339826112f8565b602082019050919050565b6000602082019050818103600083015261135d81611321565b9050919050565b7f566f74696e672068617320656e64656421000000000000000000000000000000600082015250565b600061139a601183611017565b91506113a582611364565b602082019050919050565b600060208201905081810360008301526113c98161138d565b9050919050565b7f596f75206861766520616c726561647920766f74656421000000000000000000600082015250565b6000611406601783611017565b9150611411826113d0565b602082019050919050565b60006020820190508181036000830152611435816113f9565b9050919050565b7f496e76616c696420766f7465206f7074696f6e21000000000000000000000000600082015250565b6000611472601483611017565b915061147d8261143c565b602082019050919050565b600060208201905081810360008301526114a181611465565b9050919050565b60008160601b9050919050565b60006114c0826114a8565b9050919050565b60006114d2826114b5565b9050919050565b6114ea6114e582610b48565b6114c7565b82525050565b6000819050919050565b61150b61150682610cc6565b6114f0565b82525050565b600061151d82856114d9565b60148201915061152d82846114fa565b6020820191508190509392505050565b7f566f7465207375636365737366756c6c79206361737465642100000000000000600082015250565b6000611573601983611017565b915061157e8261153d565b602082019050919050565b600060408201905061159e6000830184610f13565b81810360208301526115af81611566565b905092915050565b7f566f74696e6720686173206e6f74207374617274656420796574210000000000600082015250565b60006115ed601b83611017565b91506115f8826115b7565b602082019050919050565b6000602082019050818103600083015261161c816115e0565b905091905056fea2646970667358221220cbd4f0cabed62f6cf230381a38dacfdf48e6cc92a484fa632e72e007130f7f5364736f6c634300081b0033",
  "linkReferences": {},
  "deployedLinkReferences": {}
}