{
  "_format": "hh-sol-artifact-1",
  "contractName": "AnonymousVoting",
  "sourceName": "contracts/AnonymousVoting.sol",
  "abi": [
    {
      "inputs": [
        {
          "internalType": "address",
          "name": "_buzzCoin",
          "type": "address"
        }
      ],
      "stateMutability": "nonpayable",
      "type": "constructor"
    },
    {
      "anonymous": false,
      "inputs": [
        {
          "indexed": false,
          "internalType": "bytes32",
          "name": "voteHash",
          "type": "bytes32"
        },
        {
          "indexed": false,
          "internalType": "string",
          "name": "message",
          "type": "string"
        }
      ],
      "name": "VoteCast",
      "type": "event"
    },
    {
      "anonymous": false,
      "inputs": [
        {
          "indexed": false,
          "internalType": "string",
          "name": "winner",
          "type": "string"
        }
      ],
      "name": "VotingFinished",
      "type": "event"
    },
    {
      "anonymous": false,
      "inputs": [
        {
          "indexed": false,
          "internalType": "uint256",
          "name": "votingEnd",
          "type": "uint256"
        }
      ],
      "name": "VotingStarted",
      "type": "event"
    },
    {
      "inputs": [],
      "name": "buzzCoin",
      "outputs": [
        {
          "internalType": "contract IERC20",
          "name": "",
          "type": "address"
        }
      ],
      "stateMutability": "view",
      "type": "function"
    },
    {
      "inputs": [],
      "name": "finishVoting",
      "outputs": [],
      "stateMutability": "nonpayable",
      "type": "function"
    },
    {
      "inputs": [],
      "name": "getOptionCount",
      "outputs": [
        {
          "internalType": "uint256",
          "name": "",
          "type": "uint256"
        }
      ],
      "stateMutability": "view",
      "type": "function"
    },
    {
      "inputs": [],
      "name": "getWinner",
      "outputs": [
        {
          "internalType": "string",
          "name": "",
          "type": "string"
        }
      ],
      "stateMutability": "view",
      "type": "function"
    },
    {
      "inputs": [
        {
          "internalType": "address",
          "name": "",
          "type": "address"
        }
      ],
      "name": "hasVoted",
      "outputs": [
        {
          "internalType": "bool",
          "name": "",
          "type": "bool"
        }
      ],
      "stateMutability": "view",
      "type": "function"
    },
    {
      "inputs": [
        {
          "internalType": "uint256",
          "name": "",
          "type": "uint256"
        }
      ],
      "name": "options",
      "outputs": [
        {
          "internalType": "string",
          "name": "name",
          "type": "string"
        },
        {
          "internalType": "uint256",
          "name": "voteCount",
          "type": "uint256"
        }
      ],
      "stateMutability": "view",
      "type": "function"
    },
    {
      "inputs": [],
      "name": "owner",
      "outputs": [
        {
          "internalType": "address",
          "name": "",
          "type": "address"
        }
      ],
      "stateMutability": "view",
      "type": "function"
    },
    {
      "inputs": [],
      "name": "resetVoting",
      "outputs": [],
      "stateMutability": "nonpayable",
      "type": "function"
    },
    {
      "inputs": [
        {
          "internalType": "string[]",
          "name": "_votingOptions",
          "type": "string[]"
        },
        {
          "internalType": "uint256",
          "name": "_votingDuration",
          "type": "uint256"
        }
      ],
      "name": "startVoting",
      "outputs": [],
      "stateMutability": "nonpayable",
      "type": "function"
    },
    {
      "inputs": [
        {
          "internalType": "string",
          "name": "optionName",
          "type": "string"
        }
      ],
      "name": "vote",
      "outputs": [],
      "stateMutability": "nonpayable",
      "type": "function"
    },
    {
      "inputs": [
        {
          "internalType": "uint256",
          "name": "",
          "type": "uint256"
        }
      ],
      "name": "voterList",
      "outputs": [
        {
          "internalType": "address",
          "name": "",
          "type": "address"
        }
      ],
      "stateMutability": "view",
      "type": "function"
    },
    {
      "inputs": [],
      "name": "votingEnd",
      "outputs": [
        {
          "internalType": "uint256",
          "name": "",
          "type": "uint256"
        }
      ],
      "stateMutability": "view",
      "type": "function"
    },
    {
      "inputs": [],
      "name": "votingState",
      "outputs": [
        {
          "internalType": "enum AnonymousVoting.VotingState",
          "name": "",
          "type": "uint8"
        }
      ],
      "stateMutability": "view",
      "type": "function"
    },
    {
      "inputs": [],
      "name": "winner",
      "outputs": [
        {
          "internalType": "string",
          "name": "",
          "type": "string"
        }
      ],
      "stateMutability": "view",
      "type": "function"
    }
  ],
  "bytecode": "0x608060405234801561001057600080fd5b5060405161283b38038061283b83398181016040528101906100329190610167565b33600260006101000a81548173ffffffffffffffffffffffffffffffffffffffff021916908373ffffffffffffffffffffffffffffffffffffffff16021790555080600760006101000a81548173ffffffffffffffffffffffffffffffffffffffff021916908373ffffffffffffffffffffffffffffffffffffffff1602179055506000600460006101000a81548160ff021916908360028111156100da576100d9610194565b5b021790555060405180602001604052806000815250600390816100fd9190610413565b50506104e5565b600080fd5b600073ffffffffffffffffffffffffffffffffffffffff82169050919050565b600061013482610109565b9050919050565b61014481610129565b811461014f57600080fd5b50565b6000815190506101618161013b565b92915050565b60006020828403121561017d5761017c610104565b5b600061018b84828501610152565b91505092915050565b7f4e487b7100000000000000000000000000000000000000000000000000000000600052602160045260246000fd5b600081519050919050565b7f4e487b7100000000000000000000000000000000000000000000000000000000600052604160045260246000fd5b7f4e487b7100000000000000000000000000000000000000000000000000000000600052602260045260246000fd5b6000600282049050600182168061024457607f821691505b602082108103610257576102566101fd565b5b50919050565b60008190508160005260206000209050919050565b60006020601f8301049050919050565b600082821b905092915050565b6000600883026102bf7fffffffffffffffffffffffffffffffffffffffffffffffffffffffffffffffff82610282565b6102c98683610282565b95508019841693508086168417925050509392505050565b6000819050919050565b6000819050919050565b600061031061030b610306846102e1565b6102eb565b6102e1565b9050919050565b6000819050919050565b61032a836102f5565b61033e61033682610317565b84845461028f565b825550505050565b600090565b610353610346565b61035e818484610321565b505050565b5b818110156103825761037760008261034b565b600181019050610364565b5050565b601f8211156103c7576103988161025d565b6103a184610272565b810160208510156103b0578190505b6103c46103bc85610272565b830182610363565b50505b505050565b600082821c905092915050565b60006103ea600019846008026103cc565b1980831691505092915050565b600061040383836103d9565b9150826002028217905092915050565b61041c826101c3565b67ffffffffffffffff811115610435576104346101ce565b5b61043f825461022c565b61044a828285610386565b600060209050601f83116001811461047d576000841561046b578287015190505b61047585826103f7565b8655506104dd565b601f19841661048b8661025d565b60005b828110156104b35784890151825560018201915060208501945060208101905061048e565b868310156104d057848901516104cc601f8916826103d9565b8355505b6001600288020188555050505b505050505050565b612347806104f46000396000f3fe608060405234801561001057600080fd5b50600436106100ea5760003560e01c80638e7ea5b21161008c578063bc0a2ab311610066578063bc0a2ab31461023e578063dfbf53ae1461025a578063f909430314610278578063fc36e15b14610282576100ea565b80638e7ea5b2146101e4578063a6bd542714610202578063b62312bf14610220576100ea565b806350e2e8af116100c857806350e2e8af1461016e578063856e698c1461019e57806385a38635146101a85780638da5cb5b146101c6576100ea565b806309eef43e146100ef5780633b7698921461011f578063409e22051461013d575b600080fd5b610109600480360381019061010491906112f3565b61029e565b604051610116919061133b565b60405180910390f35b6101276102be565b60405161013491906113b5565b60405180910390f35b61015760048036038101906101529190611406565b6102e4565b6040516101659291906114d2565b60405180910390f35b61018860048036038101906101839190611406565b6103a0565b6040516101959190611511565b60405180910390f35b6101a66103df565b005b6101b0610602565b6040516101bd919061152c565b60405180910390f35b6101ce610608565b6040516101db9190611511565b60405180910390f35b6101ec61062e565b6040516101f99190611547565b60405180910390f35b61020a610735565b604051610217919061152c565b60405180910390f35b610228610741565b60405161023591906115e0565b60405180910390f35b61025860048036038101906102539190611816565b610754565b005b6102626109cc565b60405161026f9190611547565b60405180910390f35b610280610a5a565b005b61029c60048036038101906102979190611872565b610d49565b005b60056020528060005260406000206000915054906101000a900460ff1681565b600760009054906101000a900473ffffffffffffffffffffffffffffffffffffffff1681565b600081815481106102f457600080fd5b9060005260206000209060020201600091509050806000018054610317906118ea565b80601f0160208091040260200160405190810160405280929190818152602001828054610343906118ea565b80156103905780601f1061036557610100808354040283529160200191610390565b820191906000526020600020905b81548152906001019060200180831161037357829003601f168201915b5050505050908060010154905082565b600181815481106103b057600080fd5b906000526020600020016000915054906101000a900473ffffffffffffffffffffffffffffffffffffffff1681565b600260009054906101000a900473ffffffffffffffffffffffffffffffffffffffff1673ffffffffffffffffffffffffffffffffffffffff163373ffffffffffffffffffffffffffffffffffffffff161461046f576040517f08c379a00000000000000000000000000000000000000000000000000000000081526004016104669061198d565b60405180910390fd5b600280600281111561048457610483611569565b5b600460009054906101000a900460ff1660028111156104a6576104a5611569565b5b146104e6576040517f08c379a00000000000000000000000000000000000000000000000000000000081526004016104dd906119f9565b60405180910390fd5b6000600460006101000a81548160ff0219169083600281111561050c5761050b611569565b5b0217905550604051806020016040528060008152506003908161052f9190611bbb565b5060008061053d91906111b0565b60005b6001805490508110156105f0576000600560006001848154811061056757610566611c8d565b5b9060005260206000200160009054906101000a900473ffffffffffffffffffffffffffffffffffffffff1673ffffffffffffffffffffffffffffffffffffffff1673ffffffffffffffffffffffffffffffffffffffff16815260200190815260200160002060006101000a81548160ff0219169083151502179055508080600101915050610540565b50600160006105ff91906111d4565b50565b60065481565b600260009054906101000a900473ffffffffffffffffffffffffffffffffffffffff1681565b606060028081111561064357610642611569565b5b600460009054906101000a900460ff16600281111561066557610664611569565b5b146106a5576040517f08c379a000000000000000000000000000000000000000000000000000000000815260040161069c90611d08565b60405180910390fd5b600380546106b2906118ea565b80601f01602080910402602001604051908101604052809291908181526020018280546106de906118ea565b801561072b5780601f106107005761010080835404028352916020019161072b565b820191906000526020600020905b81548152906001019060200180831161070e57829003601f168201915b5050505050905090565b60008080549050905090565b600460009054906101000a900460ff1681565b600260009054906101000a900473ffffffffffffffffffffffffffffffffffffffff1673ffffffffffffffffffffffffffffffffffffffff163373ffffffffffffffffffffffffffffffffffffffff16146107e4576040517f08c379a00000000000000000000000000000000000000000000000000000000081526004016107db9061198d565b60405180910390fd5b60008060028111156107f9576107f8611569565b5b600460009054906101000a900460ff16600281111561081b5761081a611569565b5b1461085b576040517f08c379a0000000000000000000000000000000000000000000000000000000008152600401610852906119f9565b60405180910390fd5b600183511161089f576040517f08c379a000000000000000000000000000000000000000000000000000000000815260040161089690611d9a565b60405180910390fd5b6000806108ac91906111b0565b60005b835181101561094257600060405180604001604052808684815181106108d8576108d7611c8d565b5b602002602001015181526020016000815250908060018154018082558091505060019003906000526020600020906002020160009091909190915060008201518160000190816109289190611bbb565b5060208201518160010155505080806001019150506108af565b506001600061095191906111d4565b814261095d9190611de9565b6006819055506001600460006101000a81548160ff0219169083600281111561098957610988611569565b5b02179055507fcf33babc496bb6dc2942b39cb7b75766bbbadf7da50d176ff8c513e9911402396006546040516109bf919061152c565b60405180910390a1505050565b600380546109d9906118ea565b80601f0160208091040260200160405190810160405280929190818152602001828054610a05906118ea565b8015610a525780601f10610a2757610100808354040283529160200191610a52565b820191906000526020600020905b815481529060010190602001808311610a3557829003601f168201915b505050505081565b600260009054906101000a900473ffffffffffffffffffffffffffffffffffffffff1673ffffffffffffffffffffffffffffffffffffffff163373ffffffffffffffffffffffffffffffffffffffff1614610aea576040517f08c379a0000000000000000000000000000000000000000000000000000000008152600401610ae19061198d565b60405180910390fd5b600654421015610b2f576040517f08c379a0000000000000000000000000000000000000000000000000000000008152600401610b2690611e69565b60405180910390fd5b6002600460006101000a81548160ff02191690836002811115610b5557610b54611569565b5b021790555060008060405180602001604052806000815250905060005b600080549050811015610cfc578260008281548110610b9457610b93611c8d565b5b9060005260206000209060020201600101541115610c895760008181548110610bc057610bbf611c8d565b5b906000526020600020906002020160010154925060008181548110610be857610be7611c8d565b5b90600052602060002090600202016000018054610c04906118ea565b80601f0160208091040260200160405190810160405280929190818152602001828054610c30906118ea565b8015610c7d5780601f10610c5257610100808354040283529160200191610c7d565b820191906000526020600020905b815481529060010190602001808311610c6057829003601f168201915b50505050509150610cef565b8260008281548110610c9e57610c9d611c8d565b5b90600052602060002090600202016001015403610cee576040518060400160405280600381526020017f546965000000000000000000000000000000000000000000000000000000000081525091505b5b8080600101915050610b72565b508060039081610d0c9190611bbb565b507f8813091f7bbbf010986f0578782f522f8d30026821ec928daec9a2f3e0e92dc26003604051610d3d9190611f0d565b60405180910390a15050565b6001806002811115610d5e57610d5d611569565b5b600460009054906101000a900460ff166002811115610d8057610d7f611569565b5b14610dc0576040517f08c379a0000000000000000000000000000000000000000000000000000000008152600401610db7906119f9565b60405180910390fd5b6000600760009054906101000a900473ffffffffffffffffffffffffffffffffffffffff1673ffffffffffffffffffffffffffffffffffffffff166370a08231336040518263ffffffff1660e01b8152600401610e1d9190611511565b602060405180830381865afa158015610e3a573d6000803e3d6000fd5b505050506040513d601f19601f82011682018060405250810190610e5e9190611f44565b11610e9e576040517f08c379a0000000000000000000000000000000000000000000000000000000008152600401610e9590611fbd565b60405180910390fd5b6006544210610ee2576040517f08c379a0000000000000000000000000000000000000000000000000000000008152600401610ed990612029565b60405180910390fd5b600560003373ffffffffffffffffffffffffffffffffffffffff1673ffffffffffffffffffffffffffffffffffffffff16815260200190815260200160002060009054906101000a900460ff1615610f6f576040517f08c379a0000000000000000000000000000000000000000000000000000000008152600401610f6690612095565b60405180910390fd5b6000805b60008054905081101561104a5783604051602001610f9191906120f1565b6040516020818303038152906040528051906020012060008281548110610fbb57610fba611c8d565b5b9060005260206000209060020201600001604051602001610fdc919061218b565b604051602081830303815290604052805190602001200361103d5760016000828154811061100d5761100c611c8d565b5b9060005260206000209060020201600101600082825461102d9190611de9565b925050819055506001915061104a565b8080600101915050610f73565b508061108b576040517f08c379a0000000000000000000000000000000000000000000000000000000008152600401611082906121ee565b60405180910390fd5b6001600560003373ffffffffffffffffffffffffffffffffffffffff1673ffffffffffffffffffffffffffffffffffffffff16815260200190815260200160002060006101000a81548160ff0219169083151502179055506001339080600181540180825580915050600190039060005260206000200160009091909190916101000a81548173ffffffffffffffffffffffffffffffffffffffff021916908373ffffffffffffffffffffffffffffffffffffffff1602179055506000338460405160200161115b929190612256565b6040516020818303038152906040528051906020012090507f4c9b0fa43f630884c4ea730d75116ac7c27041002cc9a2ac4052a93f60f5b656816040516111a291906122e3565b60405180910390a150505050565b50805460008255600202906000526020600020908101906111d191906111f5565b50565b50805460008255906000526020600020908101906111f29190611224565b50565b5b80821115611220576000808201600061120f9190611241565b6001820160009055506002016111f6565b5090565b5b8082111561123d576000816000905550600101611225565b5090565b50805461124d906118ea565b6000825580601f1061125f575061127e565b601f01602090049060005260206000209081019061127d9190611224565b5b50565b6000604051905090565b600080fd5b600080fd5b600073ffffffffffffffffffffffffffffffffffffffff82169050919050565b60006112c082611295565b9050919050565b6112d0816112b5565b81146112db57600080fd5b50565b6000813590506112ed816112c7565b92915050565b6000602082840312156113095761130861128b565b5b6000611317848285016112de565b91505092915050565b60008115159050919050565b61133581611320565b82525050565b6000602082019050611350600083018461132c565b92915050565b6000819050919050565b600061137b61137661137184611295565b611356565b611295565b9050919050565b600061138d82611360565b9050919050565b600061139f82611382565b9050919050565b6113af81611394565b82525050565b60006020820190506113ca60008301846113a6565b92915050565b6000819050919050565b6113e3816113d0565b81146113ee57600080fd5b50565b600081359050611400816113da565b92915050565b60006020828403121561141c5761141b61128b565b5b600061142a848285016113f1565b91505092915050565b600081519050919050565b600082825260208201905092915050565b60005b8381101561146d578082015181840152602081019050611452565b60008484015250505050565b6000601f19601f8301169050919050565b600061149582611433565b61149f818561143e565b93506114af81856020860161144f565b6114b881611479565b840191505092915050565b6114cc816113d0565b82525050565b600060408201905081810360008301526114ec818561148a565b90506114fb60208301846114c3565b9392505050565b61150b816112b5565b82525050565b60006020820190506115266000830184611502565b92915050565b600060208201905061154160008301846114c3565b92915050565b60006020820190508181036000830152611561818461148a565b905092915050565b7f4e487b7100000000000000000000000000000000000000000000000000000000600052602160045260246000fd5b600381106115a9576115a8611569565b5b50565b60008190506115ba82611598565b919050565b60006115ca826115ac565b9050919050565b6115da816115bf565b82525050565b60006020820190506115f560008301846115d1565b92915050565b600080fd5b7f4e487b7100000000000000000000000000000000000000000000000000000000600052604160045260246000fd5b61163882611479565b810181811067ffffffffffffffff8211171561165757611656611600565b5b80604052505050565b600061166a611281565b9050611676828261162f565b919050565b600067ffffffffffffffff82111561169657611695611600565b5b602082029050602081019050919050565b600080fd5b600080fd5b600067ffffffffffffffff8211156116cc576116cb611600565b5b6116d582611479565b9050602081019050919050565b82818337600083830152505050565b60006117046116ff846116b1565b611660565b9050828152602081018484840111156117205761171f6116ac565b5b61172b8482856116e2565b509392505050565b600082601f830112611748576117476115fb565b5b81356117588482602086016116f1565b91505092915050565b600061177461176f8461167b565b611660565b90508083825260208201905060208402830185811115611797576117966116a7565b5b835b818110156117de57803567ffffffffffffffff8111156117bc576117bb6115fb565b5b8086016117c98982611733565b85526020850194505050602081019050611799565b5050509392505050565b600082601f8301126117fd576117fc6115fb565b5b813561180d848260208601611761565b91505092915050565b6000806040838503121561182d5761182c61128b565b5b600083013567ffffffffffffffff81111561184b5761184a611290565b5b611857858286016117e8565b9250506020611868858286016113f1565b9150509250929050565b6000602082840312156118885761188761128b565b5b600082013567ffffffffffffffff8111156118a6576118a5611290565b5b6118b284828501611733565b91505092915050565b7f4e487b7100000000000000000000000000000000000000000000000000000000600052602260045260246000fd5b6000600282049050600182168061190257607f821691505b602082108103611915576119146118bb565b5b50919050565b7f4f6e6c7920746865206f776e65722063616e2063616c6c20746869732066756e60008201527f6374696f6e210000000000000000000000000000000000000000000000000000602082015250565b600061197760268361143e565b91506119828261191b565b604082019050919050565b600060208201905081810360008301526119a68161196a565b9050919050565b7f496e76616c696420737461746521000000000000000000000000000000000000600082015250565b60006119e3600e8361143e565b91506119ee826119ad565b602082019050919050565b60006020820190508181036000830152611a12816119d6565b9050919050565b60008190508160005260206000209050919050565b60006020601f8301049050919050565b600082821b905092915050565b600060088302611a7b7fffffffffffffffffffffffffffffffffffffffffffffffffffffffffffffffff82611a3e565b611a858683611a3e565b95508019841693508086168417925050509392505050565b6000611ab8611ab3611aae846113d0565b611356565b6113d0565b9050919050565b6000819050919050565b611ad283611a9d565b611ae6611ade82611abf565b848454611a4b565b825550505050565b600090565b611afb611aee565b611b06818484611ac9565b505050565b5b81811015611b2a57611b1f600082611af3565b600181019050611b0c565b5050565b601f821115611b6f57611b4081611a19565b611b4984611a2e565b81016020851015611b58578190505b611b6c611b6485611a2e565b830182611b0b565b50505b505050565b600082821c905092915050565b6000611b9260001984600802611b74565b1980831691505092915050565b6000611bab8383611b81565b9150826002028217905092915050565b611bc482611433565b67ffffffffffffffff811115611bdd57611bdc611600565b5b611be782546118ea565b611bf2828285611b2e565b600060209050601f831160018114611c255760008415611c13578287015190505b611c1d8582611b9f565b865550611c85565b601f198416611c3386611a19565b60005b82811015611c5b57848901518255600182019150602085019450602081019050611c36565b86831015611c785784890151611c74601f891682611b81565b8355505b6001600288020188555050505b505050505050565b7f4e487b7100000000000000000000000000000000000000000000000000000000600052603260045260246000fd5b7f566f74696e6720686173206e6f7420656e646564207965742100000000000000600082015250565b6000611cf260198361143e565b9150611cfd82611cbc565b602082019050919050565b60006020820190508181036000830152611d2181611ce5565b9050919050565b7f4d7573742068617665206174206c65617374203220766f74696e67206f70746960008201527f6f6e732100000000000000000000000000000000000000000000000000000000602082015250565b6000611d8460248361143e565b9150611d8f82611d28565b604082019050919050565b60006020820190508181036000830152611db381611d77565b9050919050565b7f4e487b7100000000000000000000000000000000000000000000000000000000600052601160045260246000fd5b6000611df4826113d0565b9150611dff836113d0565b9250828201905080821115611e1757611e16611dba565b5b92915050565b7f566f74696e67206973207374696c6c206f6e676f696e67210000000000000000600082015250565b6000611e5360188361143e565b9150611e5e82611e1d565b602082019050919050565b60006020820190508181036000830152611e8281611e46565b9050919050565b60008154611e96816118ea565b611ea0818661143e565b94506001821660008114611ebb5760018114611ed157611f04565b60ff198316865281151560200286019350611f04565b611eda85611a19565b60005b83811015611efc57815481890152600182019150602081019050611edd565b808801955050505b50505092915050565b60006020820190508181036000830152611f278184611e89565b905092915050565b600081519050611f3e816113da565b92915050565b600060208284031215611f5a57611f5961128b565b5b6000611f6884828501611f2f565b91505092915050565b7f496e73756666696369656e742042757a7a436f696e20746f20766f7465210000600082015250565b6000611fa7601e8361143e565b9150611fb282611f71565b602082019050919050565b60006020820190508181036000830152611fd681611f9a565b9050919050565b7f566f74696e672068617320656e64656421000000000000000000000000000000600082015250565b600061201360118361143e565b915061201e82611fdd565b602082019050919050565b6000602082019050818103600083015261204281612006565b9050919050565b7f596f75206861766520616c726561647920766f74656421000000000000000000600082015250565b600061207f60178361143e565b915061208a82612049565b602082019050919050565b600060208201905081810360008301526120ae81612072565b9050919050565b600081905092915050565b60006120cb82611433565b6120d581856120b5565b93506120e581856020860161144f565b80840191505092915050565b60006120fd82846120c0565b915081905092915050565b60008154612115816118ea565b61211f81866120b5565b9450600182166000811461213a576001811461214f57612182565b60ff1983168652811515820286019350612182565b61215885611a19565b60005b8381101561217a5781548189015260018201915060208101905061215b565b838801955050505b50505092915050565b60006121978284612108565b915081905092915050565b7f496e76616c696420766f7465206f7074696f6e21000000000000000000000000600082015250565b60006121d860148361143e565b91506121e3826121a2565b602082019050919050565b60006020820190508181036000830152612207816121cb565b9050919050565b60008160601b9050919050565b60006122268261220e565b9050919050565b60006122388261221b565b9050919050565b61225061224b826112b5565b61222d565b82525050565b6000612262828561223f565b60148201915061227282846120c0565b91508190509392505050565b6000819050919050565b6122918161227e565b82525050565b7f566f7465207375636365737366756c6c79206361737421000000000000000000600082015250565b60006122cd60178361143e565b91506122d882612297565b602082019050919050565b60006040820190506122f86000830184612288565b8181036020830152612309816122c0565b90509291505056fea2646970667358221220f3e5178f8c0ec5156c8bf75af1875e58fccd366ec507a655dd619b3fc6e7637764736f6c634300081b0033",
  "linkReferences": {},
  "deployedLinkReferences": {}
}